:100000000000016AA766666F726D617467574342AC
:100010004341524462696463414259646E616D6553
:100020006741726475626F79646C63696FA1657012
:100030006F7274738DA3616900616601616D182927
:10004000A3616901616601616D1829A3616902619B
:100050006601616D01A3616903616601616D01A3C0
:10006000616904616601616D01A3616905616610E2
:10007000616D182CA3616906616611616D182CA36E
:10008000616907616612616D182CA3616908616678
:1000900013616D182CA3616909616614616D182CD8
:1000A000A361690A616615616D182CA361690C6111
:1000B0006600616D1820A361690D61661820616D8D
:1000C0001824666C6364746170A1667072657365F0
:1000D000746741726475626F7963697370A3636D4D
:1000E00063756A61746D65676133327534666D6519
:1000F00074686F640165706F72747384A3616902C0
:1001000061661823616D02A3616903616618246149
:100110006D02A361690C61661825616D01A36169B7
:100120000D61661820616D1824666B65796D6170CC
:10013000A1636D617088A2617300616400A2617344
:1001400001616401A2617302616402A261730361CF
:100150006403A2617304616404A2617305616405B0
:10016000A2617306616405A2617307616404896119
:020170005C47EA
:00000001FF
